:100000000C948D000C949F000C949F000C949F0006
:100010000C949F000C949F000C949F000C949F00E4
:100020000C949F000C949F000C949F000C949F00D4
:100030000C949F000C949F000C949F000C949F00C4
:100040000C949F000C949F000C94A1000C94CF0082
:100050000C949F000C949F000C949F000C949F00A4
:100060000C949F000C949F004572726F723A204569
:100070006C2062756666657220657374C3A1206C1E
:100080006C656E6F2E204E6F2073652070756564F1
:1000900065206C6565722074616E2072C3A1706901
:1000A000646F20636F6D6F20736520656E76C3ADDE
:1000B000612E0A004572726F723A204C6120696E9F
:1000C0007465727275706369C3B36E206E6F207051
:1000D00075646F206C656572206461746F20616E59
:1000E0007465732064652072656369626972206556
:1000F0006C207369677569656E74652E0A004572B8
:10010000726F7220726563696269656E646F206CDC
:1001100061207472616D612E0A0011241FBECFEF41
:10012000D8E0DEBFCDBF21E0A0E0B1E001C01D926C
:10013000A534B207E1F70E9460010C9499010C9478
:1001400000001F920F920FB60F9211242F938F93DE
:100150009F93EF93FF938091C0009091C6008C71A4
:10016000E0910201EF5FEF7120910101E21739F098
:10017000E0930201F0E0EB5FFE4F908301C082E06C
:1001800090910001892B80930001FF91EF919F9145
:100190008F912F910F900FBE0F901F9018951F9267
:1001A0000F920FB60F9211248F939F93EF93FF93AB
:1001B0009091040180910301981769F0E091030187
:1001C000EF5FEF71E0930301F0E0EB5DFE4F8081A4
:1001D0008093C60005C08091C1008F7D8093C100CF
:1001E000FF91EF919F918F910F900FBE0F901F90F5
:1001F00018951092040110920301109202011092BE
:10020000010197FF03C022E02093C00090789093F3
:10021000C5008093C40088E98093C10086E0809384
:10022000C200089590910201809101019817A9F0F0
:10023000909101019F5F9F71E92FF0E0EB5FFE4F0E
:10024000208180910001909301011092000190E0C3
:10025000982F8827820F911D089580E091E00895DE
:10026000909104019F5F9F71209103019217E1F328
:10027000E92FF0E0EB5DFE4F8083909304018091C5
:10028000C10080628093C1000895CF93DF93EC0199
:100290008991882319F00E943001FACFDF91CF9124
:1002A0000895CF93DF93FC018491EF012196882379
:1002B00021F00E943001FE01F7CFDF91CF91089528
:1002C00087E690E00E94F9007894249A2C9A2FEF08
:1002D00083ED90E3215080409040E1F700C00000A2
:1002E0002C982FEF83ED90E3215080409040E1F770
:1002F00000C000000E94120190FF07C08FE99FE03C
:100300000197F1F700C00000E1CF94FF03C08EEF2A
:1003100090E009C093FF03C084EB90E004C091FF1C
:1003200005C088E690E00E945101D0CF0E943001C4
:06033000CDCFF894FFCFD1
:00000001FF
