:100000000C9485000C94A2000C94A2000C94A20005
:100010000C94A2000C94A2000C94A2000C94A200D8
:100020000C94A2000C94A2000C94A2000C94A200C8
:100030000C94A2000C94A2000C94A2000C94A200B8
:100040000C94A2000C94A2000C9459030C94870306
:100050000C94A2000C94A2000C94A2000C94A20098
:100060000C94A2000C94A200E901EE01EE01EE0155
:10007000EE01EE01EE01EE01EE01EE01EE01EE0108
:10008000E501EE01E301EE01EE01EE01EE01EE010C
:10009000EE01EE01EE01EE01EE01EE01EE01E701EF
:1000A000EE01EE01EE01EE01EE019F01A101A301BF
:1000B000A501A701AB01AD01AF01B201B501B701C7
:1000C000B901BB01C001C201C401C601C801CA0116
:1000D000CD01CF01D401D601DA01DC01DE01360207
:1000E000380234023A022C0230022E0232024F024F
:1000F00059024D0274025302740255025102490220
:100100005B024B025D025F02570211241FBECFEF5C
:10011000D8E0DEBFCDBF11E0A0E0B1E0E0E3F9E060
:1001200002C005900D92A430B107D9F721E0A4E0F8
:10013000B1E001C01D92A934B207E1F70E94180492
:100140000C9496040C940000EF92FF920F931F936F
:10015000CF93DF938C01FC0101900020E9F73197E8
:10016000EF01C81BD90B7C01F70181917F010E942F
:10017000E803C701801B910BC817D907A8F7DF91C7
:10018000CF911F910F91FF90EF9008950F931F93C0
:10019000CF93DF938C010E94CA03C0E0D0E0882394
:1001A000A9F0282F082E000C330B30FF07C08FE971
:1001B0009FE00197F1F700C0000005C0F801EC0FC7
:1001C000FD1F808321960E94CA03E9CFC00FD11F73
:1001D000188281E0DF91CF911F910F9108950E94C5
:1001E000E80381E00895CF93DF93EC010E94CA03F6
:1001F000282F082E000C330B30FF08C08FE99FE03A
:100200000197F1F700C0000081E002C0888380E020
:1002100091E08927DF91CF910895249A2C98089531
:10022000823041F42FEF36E791E02150304090408A
:10023000E1F70AC02C9A8130A9F72FEF3DEE92E04A
:10024000215030409040E1F700C000002C988230EF
:1002500049F02FEF36E781E0215030408040E1F750
:1002600000C000000895813011F42C9A01C02C9830
:100270002FEF86E791E0215080409040E1F700C0E9
:100280000000089520980895FC0190E0189B08C094
:100290008FE39CE90197F1F700C0000081E00DC0F9
:1002A0009F5F9430C1F482E012C0AFE3BCE91197C4
:1002B000F1F700C00000222339F093B1292F2170FB
:1002C00090FFF3CF8F5FF1CF843018F081E080830F
:1002D000089510820895AFE3BCE91197F1F700C0CB
:1002E0000000D4CFFC0133E090E020E0189B02C076
:1002F0009F5F01C02F5FAFE3BCE91197F1F700C02A
:100300000000315099F7291718F481E0808308958F
:10031000108208950F931F93CF93DF938B01EA010F
:10032000082E000C990B0E948E0480978B33910548
:1003300008F054C08C5C9F4FFC010C94880481E051
:100340001BC088E03CC08AE03AC084E029C0F801C4
:10035000108281E042C082E032C086E021C0F80114
:1003600010822FC0F801108209C087E028C085E004
:1003700017C084E01CC083E0F801808382E02DC0B8
:1003800082E015C087E00CC086E019C08DE017C080
:1003900082E006C0F801108205C081E008C081E05B
:1003A000F801808383E019C081E009C083E0F8018F
:1003B000808313C089E003C08BE001C08CE0F801AA
:1003C000808384E00AC085E105C08BE203C08CE035
:1003D00001C082E1F801808386E08883DF91CF91BC
:1003E0001F910F910895DA01633041F128F46130D3
:1003F00049F0623081F008956430F1F1663009F41B
:1004000060C00895882319F0813019F0089585E4BB
:100410006AC084E568C0813049F01CF4882341F04B
:100420000895823049F0833029F0089581E45BC05B
:1004300089E459C08DE457C08EE455C0482F880F19
:10044000550B660B770B4830510508F04DC0FA018B
:10045000E159FF4F0C94880484E445C087E443C00D
:100460008BE441C08FE43FC082E53DC083E53BC0E3
:1004700085E539C087E537C0482F880F550B660BD7
:10048000770B4E30510580F5FA01E958FF4F0C9477
:10049000880482E428C083E426C086E424C088E47B
:1004A00022C08AE420C08CE41EC080E51CC081E527
:1004B0001AC086E518C088E516C089E514C08AE52B
:1004C00012C0823179F01CF48C3051F008958531DE
:1004D00019F08B3219F008958EE205C08CE203C04A
:1004E0008BE301C080E28C9308950F931F93CF9309
:1004F000DF938B01EA01082E000C990B0E948E04F9
:100500008134910581F034F40A97A9F484E0F8016C
:1005100080830FC08234910541F08334910559F4F2
:10052000F801108206C081E001C082E0F8018083FA
:1005300001C083E08883DF91CF911F910F910895CF
:10054000FB01813059F024F481110CC083E40BC00D
:10055000823031F0843031F48AE005C081E403C098
:1005600082E401C081E380830895AF92BF92CF926D
:10057000DF92EF92FF920F931F93CF93DF935B0174
:100580007A0169018C01C0E0D0E0CA15DB056CF48A
:10059000A6014C0F5D1FB7016C0F7D1FF801819103
:1005A0008F010E948A012196F0CFDF91CF911F9198
:1005B0000F91FF90EF90DF90CF90BF90AF90089594
:1005C000AF92BF92CF92DF92EF92FF920F931F9361
:1005D000CF93DF935A0169018B017C01C0E0D0E029
:1005E000CA15DB056CF4F80161918F01A6014C0F6F
:1005F0005D1FF70181917F010E94F3012196F0CFE9
:10060000DF91CF911F910F91FF90EF90DF90CF90EE
:10061000BF90AF900895AF92BF92CF92DF92EF92CA
:10062000FF920F931F93CF93DF935B017A016901D0
:100630008C01C0E0D0E0CA15DB056CF4A6014C0FBC
:100640005D1FB7016C0F7D1FF80181918F010E9422
:1006500075022196F0CFDF91CF911F910F91FF90FE
:10066000EF90DF90CF90BF90AF900895CF92DF9240
:10067000EF92FF920F931F93CF93DF936B017A0159
:100680008C01C0E0D0E0CC15DD0554F4B7016C0F4F
:100690007D1FF80181918F010E94A0022196F3CF66
:1006A000DF91CF911F910F91FF90EF90DF90CF904E
:1006B00008951F920F920FB60F9211242F938F93CC
:1006C0009F93EF93FF938091C0009091C6008C712F
:1006D000E0910601EF5FEF7120910501E21739F01B
:1006E000E0930601F0E0E75FFE4F908301C082E0F7
:1006F00090910401892B80930401FF91EF919F91C8
:100700008F912F910F900FBE0F901F9018951F92F1
:100710000F920FB60F9211248F939F93EF93FF9335
:100720009091080180910701981769F0E091070105
:10073000EF5FEF71E0930701F0E0E75DFE4F80812E
:100740008093C60005C08091C1008F7D8093C10059
:10075000FF91EF919F918F910F900FBE0F901F907F
:10076000189510920801109207011092060110923C
:10077000050197FF03C022E02093C000907890937A
:10078000C5008093C40088E98093C10086E080930F
:10079000C200089590910601809105019817A9F073
:1007A000909105019F5F9F71E92FF0E0E75FFE4F99
:1007B000208180910401909305011092040190E042
:1007C000982F8827820F911D089580E091E0089569
:1007D000909108019F5F9F71209107019217E1F3AB
:1007E000E92FF0E0E75DFE4F808390930801809150
:1007F000C10080628093C1000895CF93DF93EC0124
:100800008991882319F00E94E803FACFDF91CF91F4
:100810000895CF93DF93FC018491EF012196882303
:1008200021F00E94E803FE01F7CFDF91CF910895F8
:10083000CF93DF93CDB7DEB7CE52D1400FB6F89449
:10084000DEBF0FBECDBF87E690E00E94B103789473
:100850000E940D018E0107531F4FC8010296C35D10
:10086000DE4F99838883CD52D1404E0195E6890EA3
:10087000911CF80111821082C35DDE4FE881F9817D
:10088000CD52D14082E611928A95E9F7C8010E94C3
:10089000C600F80101900020E9F731971F01201AE6
:1008A000310AFE0131962F016401C60188199909A8
:1008B0008215930528F5F601A1906F01F201619070
:1008C0002F01712CE12CF12C0A2C000CBB086E14AA
:1008D0007F0491F0C5010E2C02C0959587950A946E
:1008E000E2F780FD02C080E001C081E00E941001BB
:1008F000FFEFEF1AFF0AEBCF82E00E941001D5CF85
:1009000082E00E94100180E091E00E94A400B1CF3B
:10091000EE0FFF1F0590F491E02D099491110895B9
:1009200081568A5108F4805285580895F894FFCF73
:040930004F4B000029
:00000001FF
