:100000000C9485000C94A2000C94A2000C94A20005
:100010000C94A2000C94A2000C94A2000C94A200D8
:100020000C94A2000C94A2000C94A2000C94A200C8
:100030000C94A2000C94A2000C94A2000C94A200B8
:100040000C94A2000C94A2000C94AD020C94DB0260
:100050000C94A2000C94A2000C94A2000C94A20098
:100060000C94A2000C94A200CB01D001D001D001CD
:10007000D001D001D001D001D001D001D001D001F8
:10008000C701D001C501D001D001D001D001D001FC
:10009000D001D001D001D001D001D001D001C901DF
:1000A000D001D001D001D001D001810183018501AF
:1000B000870189018D018F019101940197019901B7
:1000C0009B019D01A201A401A601A801AA01AC0106
:1000D000AF01B101B601B801BC01BE01C0011802F7
:1000E0001A0216021C020E0212021002140231023F
:1000F0003B022F02560235025602370233022B0210
:100100003D022D023F024102390211241FBECFEFF2
:10011000D8E0DEBFCDBF11E0A0E0B1E0ECEDF7E04C
:1001200002C005900D92A430B107D9F721E0A4E0F8
:10013000B1E001C01D92A934B207E1F70E946C033F
:100140000C94EC030C940000EF92FF920F931F931A
:10015000CF93DF938C01FC0101900020E9F73197E8
:10016000EF01C81BD90B7C01F70181917F010E942F
:100170003C03C701801B910BC817D907A8F7DF9173
:10018000CF911F910F91FF90EF9008950F931F93C0
:10019000CF93DF938C010E941E03C0E0D0E0882340
:1001A000A9F0282F082E000C330B30FF07C08FE971
:1001B0009FE00197F1F700C0000005C0F801EC0FC7
:1001C000FD1F808321960E941E03E9CFC00FD11F1F
:1001D000188281E0DF91CF911F910F9108950E94C5
:1001E0003C0381E00895CF93DF93EC010E941E034E
:1001F000282F082E000C330B30FF08C08FE99FE03A
:100200000197F1F700C0000081E002C0888380E020
:1002100091E08927DF91CF910895249A2C98089531
:10022000823041F42FEF32E597E02150304090408A
:10023000E1F70AC02C9A8130A9F72FEF35EA9EE04A
:10024000215030409040E1F700C000002C988230EF
:1002500049F02FEF32E587E0215030408040E1F750
:1002600000C00000089520980895FC0190E0189BBC
:100270000BC02FEF30E742E0215030404040E1F723
:1002800000C0000081E010C09F5F9430D9F482E08C
:1002900015C09FEF30E742E0915030404040E1F719
:1002A00000C00000222339F093B1292F217090FF64
:1002B000F0CF8F5FEECF843018F081E08083089517
:1002C000108208958FEF20E732E0815020403040C7
:1002D000E1F700C00000CBCF0F931F93CF93DF93C4
:1002E0008B01EA01082E000C990B0E94E403809711
:1002F0008B33910508F054C08C5C9F4FFC010C942B
:10030000DE0381E01BC088E03CC08AE03AC084E0A4
:1003100029C0F801108281E042C082E032C086E04C
:1003200021C0F80110822FC0F801108209C087E0B7
:1003300028C085E017C084E01CC083E0F8018083FA
:1003400082E02DC082E015C087E00CC086E019C0B5
:100350008DE017C082E006C0F801108205C081E080
:1003600008C081E0F801808383E019C081E009C002
:1003700083E0F801808313C089E003C08BE001C0F3
:100380008CE0F801808384E00AC085E105C08BE23F
:1003900003C08CE001C082E1F801808386E088839D
:1003A000DF91CF911F910F910895DA01633041F1F0
:1003B00028F4613049F0623081F008956430F1F141
:1003C000663009F460C00895882319F0813019F06F
:1003D000089585E46AC084E568C0813049F01CF462
:1003E000882341F00895823049F0833029F0089540
:1003F00081E45BC089E459C08DE457C08EE455C0E8
:10040000482F880F550B660B770B4830510508F0C5
:100410004DC0FA01E159FF4F0C94DE0384E445C05E
:1004200087E443C08BE441C08FE43FC082E53DC018
:1004300083E53BC085E539C087E537C0482F880F85
:10044000550B660B770B4E30510580F5FA01E958D4
:10045000FF4F0C94DE0382E428C083E426C086E4C8
:1004600024C088E422C08AE420C08CE41EC080E559
:100470001CC081E51AC086E518C088E516C089E56C
:1004800014C08AE512C0823179F01CF48C3051F02E
:100490000895853119F08B3219F008958EE205C068
:1004A0008CE203C08BE301C080E28C930895AF928D
:1004B000BF92CF92DF92EF92FF920F931F93CF9351
:1004C000DF937B016A0159018C01C0E0D0E0CE15B9
:1004D000DF056CF4A5014C0F5D1FB6016C0F7D1F8D
:1004E000F80181918F010E946C012196F0CFDF917C
:1004F000CF911F910F91FF90EF90DF90CF90BF9021
:10050000AF900895AF92BF92CF92DF92EF92FF9299
:100510000F931F93CF93DF936A0159018B017C01E5
:10052000C0E0D0E0CC15DD056CF4F80161918F01DD
:10053000A5014C0F5D1FF70181917F010E94D5013C
:100540002196F0CFDF91CF911F910F91FF90EF9007
:10055000DF90CF90BF90AF9008951F920F920FB68B
:100560000F9211242F938F939F93EF93FF9380917A
:10057000C0009091C6008C71E0910601EF5FEF71B1
:1005800020910501E21739F0E0930601F0E0E75F02
:10059000FE4F908301C082E090910401892B8093EB
:1005A0000401FF91EF919F918F912F910F900FBEBA
:1005B0000F901F9018951F920F920FB60F92112453
:1005C0008F939F93EF93FF93909108018091070180
:1005D000981769F0E0910701EF5FEF71E093070171
:1005E000F0E0E75DFE4F80818093C60005C08091FA
:1005F000C1008F7D8093C100FF91EF919F918F91FA
:100600000F900FBE0F901F90189510920801109236
:100610000701109206011092050197FF03C022E026
:100620002093C00090789093C5008093C40088E91F
:100630008093C10086E08093C200089590910601E6
:10064000809105019817A9F0909105019F5F9F7116
:10065000E92FF0E0E75FFE4F208180910401909345
:1006600005011092040190E0982F8827820F911DB8
:10067000089580E091E00895909108019F5F9F7137
:10068000209107019217E1F3E92FF0E0E75DFE4FBB
:100690008083909308018091C10080628093C100A3
:1006A0000895CF93DF93EC018991882319F00E947C
:1006B0003C03FACFDF91CF910895CF93DF93FC01F4
:1006C0008491EF012196882321F00E943C03FE01D2
:1006D000F7CFDF91CF910895CF93DF93CDB7DEB7FA
:1006E000CE52D1400FB6F894DEBF0FBECDBF87E625
:1006F00090E00E94050378940E940D018E0107533B
:100700001F4FC8010496C35DDE4F99838883CD5285
:10071000D1404E0195E6890E911CF801108211829C
:1007200012821382C35DDE4FE881F981CD52D14040
:1007300080E611928A95E9F7C8010E94C600F80187
:1007400001900020E9F731972F01401A510AFE016C
:1007500031963F017401C7018819990984159505DF
:1007600028F5F701A1907F01F301C1903F01D12C41
:10077000212C312C0A2C000CBB082C143D0491F0C8
:10078000C501022C02C0959587950A94E2F780FD79
:1007900002C080E001C081E00E941001FFEF2F1A2B
:1007A0003F0AEBCF82E00E941001D5CF82E00E9489
:1007B000100180E091E00E94A400AFCFEE0FFF1F78
:1007C0000590F491E02D09949111089581568A5174
:0C07D00008F4805285580895F894FFCF7B
:0407DC004F4B00007F
:00000001FF
