:100000000C9434000C9446000C9446000C9446006A
:100010000C9446000C9446000C9446000C94460048
:100020000C9446000C9446000C9446000C94460038
:100030000C9446000C9446000C9446000C94460028
:100040000C9446000C9446000C9401010C942F0172
:100050000C9446000C9446000C9446000C94460008
:100060000C9446000C94460011241FBECFEFD8E03C
:10007000DEBFCDBF21E0A0E0B1E001C01D92A534FC
:10008000B207E1F70E94C0010C94E4010C94000057
:10009000EF92FF920F931F93CF93DF938C01FC019C
:1000A00001900020E9F73197EF01C81BD90B7C01C3
:1000B000F70181917F010E949001C701801B910B84
:1000C000C817D907A8F7DF91CF911F910F91FF9023
:1000D000EF9008950F931F93CF93DF938C010E94AD
:1000E0007201C0E0D0E08823A9F0282F082E000C70
:1000F000330B30FF07C08FE99FE00197F1F700C095
:10010000000005C0F801EC0FFD1F808321960E94BE
:100110007201E9CFC00FD11F188281E0DF91CF912A
:100120001F910F9108950E94900181E00895CF934F
:10013000DF93EC010E947201282F082E000C330B74
:1001400030FF08C08FE99FE00197F1F700C0000081
:1001500081E002C0888380E091E08927DF91CF9120
:100160000895249A2C980895823029F4EFE5FAEE48
:100170003197F1F70AC02C9A8130C1F7FFEF26E7DB
:1001800031E0F15020403040E1F700C000002C98F1
:10019000823031F08FE59AEE0197F1F700C0000050
:1001A000089520980895FC0190E0189B08C08FE105
:1001B0009EE40197F1F700C0000081E00DC09F5F51
:1001C0009430C1F482E012C0AFE1BEE41197F1F7C0
:1001D00000C00000213039F493B1292F217090FF25
:1001E000F3CF8F5FF1CF843018F081E080830895E2
:1001F00010820895AFE1BEE41197F1F700C000004E
:10020000D4CF1F920F920FB60F9211242F938F937A
:100210009F93EF93FF938091C0009091C6008C71E3
:10022000E0910201EF5FEF7120910101E21739F0D7
:10023000E0930201F0E0EB5FFE4F908301C082E0AB
:1002400090910001892B80930001FF91EF919F9184
:100250008F912F910F900FBE0F901F9018951F92A6
:100260000F920FB60F9211248F939F93EF93FF93EA
:100270009091040180910301981769F0E0910301C6
:10028000EF5FEF71E0930301F0E0EB5DFE4F8081E3
:100290008093C60005C08091C1008F7D8093C1000E
:1002A000FF91EF919F918F910F900FBE0F901F9034
:1002B00018951092040110920301109202011092FD
:1002C000010197FF03C022E02093C0009078909333
:1002D000C5008093C40088E98093C10086E08093C4
:1002E000C200089590910201809101019817A9F030
:1002F000909101019F5F9F71E92FF0E0EB5FFE4F4E
:10030000208180910001909301011092000190E002
:10031000982F8827820F911D089580E091E008951D
:10032000909104019F5F9F71209103019217E1F367
:10033000E92FF0E0EB5DFE4F808390930401809104
:10034000C10080628093C1000895CF93DF93EC01D8
:100350008991882319F00E949001FACFDF91CF9103
:100360000895CF93DF93FC018491EF0121968823B8
:1003700021F00E949001FE01F7CFDF91CF91089507
:100380000E94B10080E00E94B40080E00E94B400AE
:1003900080E00E94B40082E00E94B40081E00E94EC
:1003A000B40081E00E94B40082E00E94B40080E0CA
:1003B0000E94B40080E00E94B40080E00E94B4007B
:0C03C00082E00E94B400DECFF894FFCF72
:00000001FF
