:100000000C9434000C943E000C943E000C943E0082
:100010000C943E000C943E000C943E000C943E0068
:100020000C943E000C943E000C943E000C943E0058
:100030000C943E000C943E000C943E000C943E0048
:100040000C943E000C943E000C943E000C943E0038
:100050000C943E000C943E000C943E000C943E0028
:100060000C943E000C943E0011241FBECFEFD8E04C
:10007000DEBFCDBF0E9440000C9456000C940000DF
:10008000249A20982C9880E0189B05C0811107C005
:100090002C9A81E004C0882311F02C9880E0EFECCA
:1000A000F7E03197F1F700C00000EECFF894FFCFF2
:00000001FF
