:100000000C9485000C94A2000C94A2000C94A20005
:100010000C94A2000C94A2000C94A2000C94A200D8
:100020000C94A2000C94A2000C94A2000C94A200C8
:100030000C94A2000C94A2000C94A2000C94A200B8
:100040000C94A2000C94A2000C9497020C94C5028C
:100050000C94A2000C94A2000C94A2000C94A20098
:100060000C94A2000C94A200B801BC01BC01BC011C
:10007000BC01BC01BC01BC01BC01BC01BC01BC0198
:10008000B401BC01B201BC01BC01BC01BC01BC019A
:10009000BC01BC01BC01BC01BC01BC01BC01B6017E
:1000A000BC01BC01BC01BC01BC01760178017A0134
:1000B0007C017E01810183018501870189018B011A
:1000C0008D018F0193019501970199019B019D017C
:1000D0009F01A101A501A701AA01AC01AE01020285
:1000E000040200020602F801FC01FA01FE011B02F3
:1000F0002502190240021F02400221021D021502C0
:100100002702170229022B02230211241FBECFEF60
:10011000D8E0DEBFCDBF11E0A0E0B1E0E0EBF7E05A
:1001200002C005900D92A430B107D9F721E0A4E0F8
:10013000B1E001C01D92A934B207E1F70E94560355
:100140000C94D6030C940000EF92FF920F931F9330
:10015000CF93DF938C01FC0101900020E9F73197E8
:10016000EF01C81BD90B7C01F70181917F010E942F
:100170002603C701801B910BC817D907A8F7DF9189
:10018000CF911F910F91FF90EF9008950F931F93C0
:10019000CF93DF938C010E940803C0E0D0E0882356
:1001A000A9F0282F082E000C330B30FF07C08FE971
:1001B0009FE00197F1F700C0000005C0F801EC0FC7
:1001C000FD1F808321960E940803E9CFC00FD11F35
:1001D000188281E0DF91CF911F910F9108950E94C5
:1001E000260381E00895CF93DF93EC010E9408037A
:1001F000282F082E000C330B30FF08C08FE99FE03A
:100200000197F1F700C0000081E002C0888380E020
:1002100091E08927DF91CF910895249A2C98089531
:10022000823041F42FEF36E791E02150304090408A
:10023000E1F70AC02C9A8130A9F72FEF3DEE92E04A
:10024000215030409040E1F700C000002C988230EF
:1002500049F02FEF36E781E0215030408040E1F750
:1002600000C00000089520980895FC0190E0189BBC
:1002700008C08FE39CE90197F1F700C0000081E01E
:100280000DC09F5F9430C1F482E012C0AFE3BCE9BF
:100290001197F1F700C00000213039F493B1292FF4
:1002A000217090FFF3CF8F5FF1CF843018F081E0A1
:1002B0008083089510820895AFE3BCE91197F1F7A8
:1002C00000C00000D4CFCF93DF93EB01DA01482FB9
:1002D000880F550B660B770BFA01B097EB33F105DE
:1002E00008F04AC0EC5CFF4F0C94D00381E018C0CA
:1002F00088E035C08AE033C084E024C0188281E001
:100300003AC082E02CC086E01DC0188229C0188245
:1003100008C087E024C085E015C084E019C083E0F0
:10032000888382E028C082E013C087E00BC086E0AB
:1003300016C08DE014C082E005C0188204C081E0C0
:1003400007C081E0888383E016C081E008C083E0B5
:10035000888311C089E003C08BE001C08CE08883F2
:1003600084E009C085E105C08BE203C08CE001C0D8
:1003700082E1888386E08C93DF91CF910895DA0142
:10038000633041F128F4613049F0623081F0089522
:100390006430F1F1663009F460C00895882319F0E3
:1003A000813019F0089585E46AC084E568C0813021
:1003B00049F01CF4882341F00895823049F08330DD
:1003C00029F0089581E45BC089E459C08DE457C0E9
:1003D0008EE455C0482F880F550B660B770B4830BD
:1003E000510508F04DC0FA01E159FF4F0C94D003BC
:1003F00084E445C087E443C08BE441C08FE43FC040
:1004000082E53DC083E53BC085E539C087E537C05F
:10041000482F880F550B660B770B4E30510580F532
:10042000FA01E958FF4F0C94D00382E428C083E41A
:1004300026C086E424C088E422C08AE420C08CE47C
:100440001EC080E51CC081E51AC086E518C088E59D
:1004500016C089E514C08AE512C0823179F01CF417
:100460008C3051F00895853119F08B3219F00895D0
:100470008EE205C08CE203C08BE301C080E28C9366
:100480000895AF92BF92CF92DF92EF92FF920F93B7
:100490001F93CF93DF937B016A0159018C01C0E068
:1004A000D0E0CE15DF056CF4A5014C0F5D1FB60141
:1004B0006C0F7D1FF80181918F010E9463012196CD
:1004C000F0CFDF91CF911F910F91FF90EF90DF90D0
:1004D000CF90BF90AF900895AF92BF92CF92DF922E
:1004E000EF92FF920F931F93CF93DF936A0159010D
:1004F0008B017C01C0E0D0E0CC15DD056CF4F80187
:1005000061918F01A5014C0F5D1FF70181917F0162
:100510000E94BF012196F0CFDF91CF911F910F91E3
:10052000FF90EF90DF90CF90BF90AF9008951F9213
:100530000F920FB60F9211242F938F939F93EF93E7
:10054000FF938091C0009091C6008C71E0910601EC
:10055000EF5FEF7120910501E21739F0E09306019A
:10056000F0E0E75FFE4F908301C082E090910401CC
:10057000892B80930401FF91EF919F918F912F918F
:100580000F900FBE0F901F9018951F920F920FB6ED
:100590000F9211248F939F93EF93FF9390910801F3
:1005A00080910701981769F0E0910701EF5FEF7103
:1005B000E0930701F0E0E75DFE4F80818093C60085
:1005C00005C08091C1008F7D8093C100FF91EF91A4
:1005D0009F918F910F900FBE0F901F9018951092C2
:1005E000080110920701109206011092050197FF71
:1005F00003C022E02093C00090789093C5008093C0
:10060000C40088E98093C10086E08093C200089509
:1006100090910601809105019817A9F0909105012C
:100620009F5F9F71E92FF0E0E75FFE4F208180918F
:100630000401909305011092040190E0982F8827FF
:10064000820F911D089580E091E008959091080136
:100650009F5F9F71209107019217E1F3E92FF0E06E
:10066000E75DFE4F8083909308018091C100806216
:100670008093C1000895CF93DF93EC018991882383
:1006800019F00E942603FACFDF91CF910895CF93FE
:10069000DF93FC018491EF012196882321F00E94D1
:1006A0002603FE01F7CFDF91CF910895CF93DF931B
:1006B000CDB7DEB7CE52D1400FB6F894DEBF0FBE35
:1006C000CDBF87E690E00E94EF0278940E940D0172
:1006D0008E0107531F4FC8010496C35DDE4F9983F7
:1006E0008883CD52D1406E0195E6C90ED11CF80128
:1006F0001082118212821382C35DDE4FE881F9817C
:10070000CD52D14080E611928A95E9F7C8010E9446
:10071000C600F80101900020E9F731977F01E01A47
:10072000F10A9E012F5F3F4FA601B701C8010E9449
:100730004102FE0131961F015601C5018C199D0928
:100740008E159F0528F5F50181905F01F10141901B
:100750001F01512C612C712C082C000C9908641479
:10076000750491F0C401062C02C0959587950A94F2
:10077000E2F780FD02C080E001C081E00E9410012C
:10078000FFEF6F1A7F0AEBCF82E00E941001D5CFF6
:1007900082E00E94100180E091E00E94A400A7CFB7
:1007A000EE0FFF1F0590F491E02D0994F894FFCF10
:0407B0004F4B0000AB
:00000001FF
