:100000000C9434000C9451000C9451000C94510049
:100010000C9451000C9451000C9451000C9451001C
:100020000C9451000C9451000C9451000C9451000C
:100030000C9451000C9451000C9451000C945100FC
:100040000C9451000C9451000C94C0000C94EE00E0
:100050000C9451000C9451000C9451000C945100DC
:100060000C9451000C94510011241FBECFEFD8E026
:10007000DEBFCDBF11E0A0E0B1E0EEECF3E002C0E6
:1000800005900D92A633B107D9F721E0A6E3B1E0C0
:1000900001C01D92AB37B207E1F70E947F010C94BB
:1000A000E5010C940000EF92FF920F931F93CF9302
:1000B000DF938C01FC0101900020E9F73197EF01FB
:1000C000C81BD90B7C01F70181917F010E944F0170
:1000D000C701801B910BC817D907A8F7DF91CF91F3
:1000E0001F910F91FF90EF9008950F931F93CF935F
:1000F000DF938C010E943101C0E0D0E08823A9F099
:10010000282F082E000C330B30FF07C08FE99FE02B
:100110000197F1F700C0000005C0F801EC0FFD1FCA
:10012000808321960E943101E9CFC00FD11F188230
:1001300081E0DF91CF911F910F9108950E944F01AF
:1001400081E00895CF93DF93EC010E943101282FC5
:10015000082E000C330B30FF08C08FE99FE0019799
:10016000F1F700C0000081E002C0888380E091E0E8
:100170008927DF91CF9108950895089508950895EE
:100180001F920F920FB60F9211242F938F939F936C
:10019000EF93FF938091C0009091C6008C71E09125
:1001A0003801EF5FEF7120913701E21739F0E093EA
:1001B0003801F0E0E55CFE4F908301C082E0909151
:1001C0003601892B80933601FF91EF919F918F919A
:1001D0002F910F900FBE0F901F9018951F920F92A6
:1001E0000FB60F9211248F939F93EF93FF939091EB
:1001F0003A0180913901981769F0E0913901EF5F78
:10020000EF71E0933901F0E0E55AFE4F8081809371
:10021000C60005C08091C1008F7D8093C100FF9111
:10022000EF919F918F910F900FBE0F901F90189597
:1002300010923A0110923901109238011092370150
:1002400097FF03C022E02093C00090789093C500F0
:100250008093C40088E98093C10086E08093C20047
:10026000089590913801809137019817A9F09091E5
:1002700037019F5F9F71E92FF0E0E55CFE4F208121
:1002800080913601909337011092360190E0982FBB
:100290008827820F911D089580E091E00895909144
:1002A0003A019F5F9F71209139019217E1F3E92F85
:1002B000F0E0E55AFE4F808390933A018091C100AF
:1002C00080628093C1000895CF93DF93EC01899100
:1002D000882319F00E944F01FACFDF91CF91089542
:1002E000CF93DF93FC018491EF012196882321F0C5
:1002F0000E944F01FE01F7CFDF91CF910895CF9378
:10030000DF93CDB7DEB7C058D1090FB6F894DEBF82
:100310000FBECDBF249A87E690E00E941801789422
:1003200011E00CE77E0125E0E20EF11C19821A8231
:100330001B821C82F701202F11922A95E9F7CE012A
:1003400001960E94750060E071E0CE0101960E9466
:10035000DC01892B29F483E091E00E94530013C053
:1003600061E171E0CE0101960E94DC01892B29F444
:1003700085E191E00E94530012C081E291E00E9469
:100380005300112361F02C9A8FEF93EDE0E381503D
:100390009040E040E1F700C0000011E0C7CF85B118
:1003A00015B8FFEF23ED80E3F15020408040E1F7E6
:1003B00000C0000010E0BACFFB01DC018D9101907C
:0E03C00080190110D9F3990B0895F894FFCF1E
:1003CE004F6E004C656420656E63656E6469646F84
:1003DE00004F6666004C6564206170616761646FF2
:1003EE00004E6F20656E7469656E646F206C6120BF
:0603FE006F7264656E00E1
:00000001FF
