:100000000C9434000C9451000C9451000C94510049
:100010000C9451000C9451000C9451000C9451001C
:100020000C9451000C9451000C9451000C9451000C
:100030000C9451000C9451000C9451000C945100FC
:100040000C9451000C9451000C9453000C948100BA
:100050000C9451000C9451000C9451000C945100DC
:100060000C9451000C94510011241FBECFEFD8E026
:10007000DEBFCDBF11E0A0E0B1E0ECE2F3E002C0F2
:1000800005900D92A830B107D9F721E0A8E0B1E0C2
:1000900001C01D92AD34B207E1F70E9412010C9429
:1000A00094010C9400001F920F920FB60F9211242E
:1000B0002F938F939F93EF93FF938091C000909124
:1000C000C6008C71E0910A01EF5FEF712091090188
:1000D000E21739F0E0930A01F0E0E35FFE4F90830E
:1000E00001C082E090910801892B80930801FF9163
:1000F000EF919F918F912F910F900FBE0F901F90B6
:1001000018951F920F920FB60F9211248F939F9301
:10011000EF93FF9390910C0180910B01981769F078
:10012000E0910B01EF5FEF71E0930B01F0E0E35D15
:10013000FE4F80818093C60005C08091C1008F7DF5
:100140008093C100FF91EF919F918F910F900FBE0F
:100150000F901F90189510920C0110920B011092A5
:100160000A011092090197FF03C022E02093C0000A
:1001700090789093C5008093C40088E98093C10073
:1001800086E08093C200089590910A018091090150
:100190009817A9F0909109019F5F9F71E92FF0E0F6
:1001A000E35FFE4F20818091080190930901109236
:1001B000080190E0982F8827820F911D089580E014
:1001C00091E0089590910C019F5F9F7120910B0128
:1001D0009217E1F3E92FF0E0E35DFE4F8083909307
:1001E0000C018091C10080628093C1000895CF937B
:1001F000DF93EC018991882319F00E94E200FACF85
:10020000DF91CF910895CF93DF93FC018491EF01AB
:100210002196882321F00E94E200FE01F7CFDF91B2
:10022000CF910895CF93DF93CDB7DEB7C158D109F1
:100230000FB6F894DEBF0FBECDBF249A87E690E0DC
:100240000E94AB00789419821A821B821C82FE01E4
:1002500035968DE7DF011D928A95E9F700E010E001
:10026000BB24B39434977F010E94C4008823A1F07B
:10027000282F082E000C330B30FF07C08FE99FE0BA
:100280000197F1F700C00000EFCFF701E00FF11F79
:1002900080830F5F1F4FE8CF60E071E0C7010E94CD
:1002A0008B01892B49F063E071E0C7010E948B014B
:1002B000892B79F0BB2069F02C9A9FEFA3EDB0E376
:1002C0009150A040B040E1F700C00000BB24B394BF
:1002D0000CC085B115B8EFEFF3ED20E3E150F0402D
:1002E0002040E1F700C00000B12CF7010190002090
:1002F000E9F731976F01CE18DF08470100E010E001
:10030000D4018D914D010E94E2000F5F1F4FC01676
:10031000D106B0F7A9CFFB01DC018D9101908019C6
:0C0320000110D9F3990B0895F894FFCF59
:08032C004F6E004F66660000F1
:00000001FF
