:100000000C948D000C94AA000C94AA000C94AA00E5
:100010000C94AA000C94AA000C94AA000C94AA00B8
:100020000C94AA000C94AA000C94AA000C94AA00A8
:100030000C94AA000C94AA000C94AA000C94AA0098
:100040000C94AA000C94AA000C94AC000C94DA0056
:100050000C94AA000C94AA000C94AA000C94AA0078
:100060000C94AA000C94AA004572726F723A204553
:100070006C2062756666657220657374C3A1206C1E
:100080006C656E6F2E204E6F2073652070756564F1
:1000900065206C6565722074616E2072C3A1706901
:1000A000646F20636F6D6F20736520656E76C3ADDE
:1000B000610A004572726F723A204C6120696E7459
:1000C00065727275706369C3B36E206E6F20707550
:1000D000646F206C65657220656C206461746F20AC
:1000E000616E74657320646520726563696269720C
:1000F00020656C207369677569656E74652E0A00EA
:100100004572726F7220726563696269656E646FB1
:10011000207472616D612E0A000011241FBECFEFA2
:10012000D8E0DEBFCDBF11E0A0E0B1E0EEEEF3E03D
:1001300002C005900D92A830B107D9F721E0A8E0E0
:10014000B1E001C01D92AD34B207E1F70E946B012E
:100150000C94F5010C9400001F920F920FB60F92B1
:1001600011242F938F939F93EF93FF938091C0005F
:100170009091C6008C71E0910A01EF5FEF712091C0
:100180000901E21739F0E0930A01F0E0E35FFE4F66
:10019000908301C082E090910801892B809308012F
:1001A000FF91EF919F918F912F910F900FBE0F9024
:1001B0001F9018951F920F920FB60F9211248F93D4
:1001C0009F93EF93FF9390910C0180910B019817EF
:1001D00069F0E0910B01EF5FEF71E0930B01F0E04C
:1001E000E35DFE4F80818093C60005C08091C10011
:1001F0008F7D8093C100FF91EF919F918F910F9020
:100200000FBE0F901F90189510920C0110920B01C9
:1002100010920A011092090197FF03C022E0209377
:10022000C00090789093C5008093C40088E98093C3
:10023000C10086E08093C200089590910A018091E8
:1002400009019817A9F0909109019F5F9F71E92F0B
:10025000F0E0E35FFE4F2081809108019093090157
:100260001092080190E0982F8827820F911D089521
:1002700080E091E0089590910C019F5F9F71209123
:100280000B019217E1F3E92FF0E0E35DFE4F80836D
:1002900090930C018091C10080628093C100089509
:1002A000CF93DF93EC018991882319F00E943B01E1
:1002B000FACFDF91CF910895CF93DF93FC01849122
:1002C000EF012196882321F00E943B01FE01F7CF28
:1002D000DF91CF910895CF93DF93CDB7DEB7C158AB
:1002E000D1090FB6F894DEBF0FBECDBF249A87E6C2
:1002F00090E00E940401789419821A821B821C8269
:10030000FE0135968DE7DF011D928A95E9F700E041
:1003100010E0DD24D39434977F010E941D0190FFEB
:1003200007C08FE99FE00197F1F700C0000015C0FA
:1003300094FF03C080E091E004C093FF05C083EB0D
:1003400090E00E945C0109C091FF03C088E690E044
:10035000F8CFF701E00FF11F808360E071E0C70183
:100360000E94EC01892B49F063E071E0C7010E9413
:10037000EC01892B79F0DD2069F02C9A9FEFA3ED39
:10038000B0E39150A040B040E1F700C00000DD2490
:10039000D3940CC085B115B8EFEFF3ED20E3E15035
:1003A000F0402040E1F700C00000D12CF70101909F
:1003B0000020E9F731978F010E191F095701C50178
:1003C0008E199F098017910708F0A7CFD5018D914D
:1003D0005D010E943B01F3CFFB01DC018D91019097
:0E03E00080190110D9F3990B0895F894FFCFFE
:0803EE004F6E004F666600002F
:00000001FF
