:100000000C948D000C94AA000C94AA000C94AA00E5
:100010000C94AA000C94AA000C94AA000C94AA00B8
:100020000C94AA000C94AA000C94AA000C94AA00A8
:100030000C94AA000C94AA000C94AA000C94AA0098
:100040000C94AA000C94AA000C94AC000C94DA0056
:100050000C94AA000C94AA000C94AA000C94AA0078
:100060000C94AA000C94AA004572726F723A204553
:100070006C2062756666657220657374C3A1206C1E
:100080006C656E6F2E204E6F2073652070756564F1
:1000900065206C6565722074616E2072C3A1706901
:1000A000646F20636F6D6F20736520656E76C3ADDE
:1000B000610A004572726F723A204C6120696E7459
:1000C00065727275706369C3B36E206E6F20707550
:1000D000646F206C65657220656C206461746F20AC
:1000E000616E74657320646520726563696269720C
:1000F00020656C207369677569656E74652E0A00EA
:100100004572726F7220726563696269656E646FB1
:10011000207472616D612E0A000011241FBECFEFA2
:10012000D8E0DEBFCDBF12E0A0E0B1E0EEE7F4E042
:1001300002C005900D92AA38B107D9F722E0AAE8CB
:10014000B2E001C01D92AF3CB207E1F70E946B0123
:100150000C943D020C9400001F920F920FB60F9268
:1001600011242F938F939F93EF93FF938091C0005F
:100170009091C6008C71E0918C02EF5FEF7120913D
:100180008B02E21739F0E0938C02F0E0E157FD4F6B
:10019000908301C082E090918A02892B80938A0229
:1001A000FF91EF919F918F912F910F900FBE0F9024
:1001B0001F9018951F920F920FB60F9211248F93D4
:1001C0009F93EF93FF9390918E0280918D029817E9
:1001D00069F0E0918D02EF5FEF71E0938D02F0E046
:1001E000E155FD4F80818093C60005C08091C1001C
:1001F0008F7D8093C100FF91EF919F918F910F9020
:100200000FBE0F901F90189510928E0210928D02C3
:1002100010928C0210928B0297FF03C022E0209371
:10022000C00090789093C5008093C40088E98093C3
:10023000C10086E08093C200089590918C02809165
:100240008B029817A9F090918B029F5F9F71E92F05
:10025000F0E0E157FD4F208180918A0290938B025C
:1002600010928A0290E0982F8827820F911D08959E
:1002700080E091E0089590918E029F5F9F712091A0
:100280008D029217E1F3E92FF0E0E155FD4F8083F5
:1002900090938E028091C10080628093C100089586
:1002A000CF93DF93EC018991882319F00E943B01E1
:1002B000FACFDF91CF910895CF93DF93FC01849122
:1002C000EF012196882321F00E943B01FE01F7CF28
:1002D000DF91CF910895CF93DF93CDB7DEB7C450B0
:1002E000D2400FB6F894DEBF0FBECDBF249A87E68A
:1002F00090E00E94040178948E010C571E4FF80183
:1003000011921192119211928DE7DF011D928A953F
:10031000E9F78FE0E0E0F1E0DE01AD5FBE4F019074
:100320000D928A95E1F7E3E0F1E0EC0FFD1F3F96B7
:1003300082E7DF011D928A95E9F78DE0E1E8F1E0BF
:10034000DE01AE57BF4F01900D928A95E1F7E2E8CA
:10035000F0E0EC0FFD1F3D9684E7DF011D928A95CA
:10036000E9F786E1E2E0F2E0DE01119601900D92FC
:100370008A95E1F7FE0177968BE6DF011D928A955B
:10038000E9F7E12CF12CBB24B3940E941D016C0110
:1003900090FF07C0EFE9FFE03197F1F700C00000E0
:1003A000F4CF94FF05C080E091E00E945C01EDCFA6
:1003B00093FF03C083EB90E004C091FF05C088E683
:1003C00090E00E945C0107C0F801EE0DFF1D8083E4
:1003D000FFEFEF1AFF0ACD28C1F663E872E0C8010B
:1003E0000E942D02892B39F4BE016D5F7E4FC8013A
:1003F0000E94360215C066E872E0C8010E942D0214
:10040000BE01892B31F46E577F4FC8010E9436021E
:100410000BC06F5F7F4FC8010E943602BB2021F0E6
:100420002C9ABB24B39402C02C98B12CF8010190F3
:100430000020E9F731976F01C01AD10A4801E12C79
:10044000F12CD4018D914D010E943B01BFEFEB1ABD
:10045000FB0ACE14DF04A8F798CFFB01DC018D91D5
:10046000019080190110D9F3990B0895FB01DC016B
:0E04700001900D920020E1F70895F894FFCF5F
:10047E004C656420656E63656E6469646F00000090
:10048E00000000000000000000000000000000005E
:10049E00000000000000000000000000000000004E
:1004AE00000000000000000000000000000000003E
:1004BE00000000000000000000000000000000002E
:1004CE00000000000000000000000000000000001E
:1004DE00000000000000000000000000000000000E
:1004EE0000000000000000000000000000000000FE
:1004FE00004C6564206170616761646F00000000EC
:10050E0000000000000000000000000000000000DD
:10051E0000000000000000000000000000000000CD
:10052E0000000000000000000000000000000000BD
:10053E0000000000000000000000000000000000AD
:10054E00000000000000000000000000000000009D
:10055E00000000000000000000000000000000008D
:10056E00000000000000000000000000000000007D
:10057E0000004E6F20656E7469656E646F206C614D
:10058E00206F7264656E0000000000000000000025
:10059E00000000000000000000000000000000004D
:1005AE00000000000000000000000000000000003D
:1005BE00000000000000000000000000000000002D
:1005CE00000000000000000000000000000000001D
:1005DE00000000000000000000000000000000000D
:1005EE0000000000000000000000000000000000FD
:0A05FE000000004F6E004F6666001B
:00000001FF
