:100000000C9459000C9476000C9476000C947600B5
:100010000C9476000C9476000C9476000C94760088
:100020000C9476000C9476000C9476000C94760078
:100030000C9476000C9476000C9476000C94760068
:100040000C9476000C9476000C94C6000C94F4008A
:100050000C9476000C9476000C9476000C94760048
:100060000C9476000C9476004572726F723A204CB4
:100070006120696E7465727275706369C3B36E20B6
:100080006E6F207075646F206C656572206461749A
:100090006F20616E746573206465207265636962A8
:1000A000697220656C207369677569656E74652E69
:1000B0000A0011241FBECFEFD8E0DEBFCDBF11E094
:1000C000A0E0B1E0E0EFF3E002C005900D92A631B0
:1000D000B107D9F721E0A6E1B1E001C01D92AB352F
:1000E000B207E1F70E9485010C94F6010C94000020
:1000F0000E946A0108950F931F93CF93DF938C01A1
:100100000E943701C0E0D0E08823A9F0282F082EF4
:10011000000C330B30FF07C08FE99FE00197F1F728
:1001200000C0000005C0F801EC0FFD1F8083219680
:100130000E943701E9CFC00FD11F188281E0DF9103
:10014000CF911F910F9108950E94550181E008956C
:10015000CF93DF93EC010E943701282F082E000C6B
:10016000330B30FF08C08FE99FE00197F1F700C023
:10017000000081E002C0888380E091E08927DF9160
:10018000CF91089508950895089508951F920F92AC
:100190000FB60F9211242F938F939F93EF93FF939A
:1001A0008091C0009091C6008C71E0911801EF5FC2
:1001B000EF7120911701E21739F0E0931801F0E098
:1001C000E55EFE4F908301C082E090911601892B7D
:1001D00080931601FF91EF919F918F912F910F9036
:1001E0000FBE0F901F9018951F920F920FB60F928F
:1001F00011248F939F93EF93FF9390911A01809115
:100200001901981769F0E0911901EF5FEF71E09320
:100210001901F0E0E55CFE4F80818093C60005C0C7
:100220008091C1008F7D8093C100FF91EF919F91DC
:100230008F910F900FBE0F901F90189510921A017A
:1002400010921901109218011092170197FF03C024
:1002500022E02093C00090789093C5008093C40062
:1002600088E98093C10086E08093C2000895909150
:100270001801809117019817A9F0909117019F5FBD
:100280009F71E92FF0E0E55EFE4F2081809116011D
:10029000909317011092160190E0982F8827820FF3
:1002A000911D089580E091E0089590911A019F5F5B
:1002B0009F71209119019217E1F3E92FF0E0E55CBD
:1002C000FE4F808390931A018091C10080628093D9
:1002D000C1000895CF93DF93EC018991882319F031
:1002E0000E945501FACFDF91CF910895CF93DF930C
:1002F000FC018491EF012196882321F00E94550191
:10030000FE01F7CFDF91CF910895CF93DF93CDB763
:10031000DEB7C058D1090FB6F894DEBF0FBECDBF0F
:10032000249A87E690E00E941E01789411E00CE781
:100330007E0125E0E20EF11C19821A821B821C82CA
:10034000F701202F11922A95E9F7CE0101960E941C
:100350007B0060E071E0CE0101960E94E601892BEE
:1003600039F464E071E0CE0101960E94EF0111C002
:1003700061E171E0CE0101960E94E601892B39F41A
:1003800064E071E0CE0101960E94EF010EC01123DE
:1003900061F02C9A8FEF93EDE0E381509040E040C4
:1003A000E1F700C0000011E00CC085B115B8FFEF07
:1003B00023ED80E3F15020408040E1F700C00000D1
:1003C00010E088E690E00E947601B6CFFB01DC01E8
:1003D0008D91019080190110D9F3990B0895FB01BB
:1003E000DC0101900D920020E1F70895F894FFCF11
:1003F0004F4E00004C4544206170616761646F009E
:06040000004F464600001B
:00000001FF
