:100000000C9434000C943E000C943E000C943E0082
:100010000C943E000C943E000C943E000C943E0068
:100020000C943E000C943E000C943E000C943E0058
:100030000C943E000C943E000C943E000C943E0048
:100040000C943E000C943E000C943E000C943E0038
:100050000C943E000C943E000C943E000C943E0028
:100060000C943E000C943E0011241FBECFEFD8E04C
:10007000DEBFCDBF0E9440000C9493000C940000A2
:10008000249A20E030E0E5E0F0E02F5F3F4FC90127
:10009000BF010E946B00892B49F42C9A4FEF83ED2E
:1000A00090E3415080409040E1F708C02C9A4FEF18
:1000B00081EE94E0415080409040E1F700C00000A4
:1000C0002C984FEF81EE94E0415080409040E1F752
:1000D00000C00000DACF97FB072E16F4009407D07B
:1000E00077FD09D00E947F0007FC05D03EF4909573
:1000F00081959F4F0895709561957F4F0895AA1B34
:10010000BB1B51E107C0AA1FBB1FA617B70710F002
:10011000A61BB70B881F991F5A95A9F78095909534
:0A012000BC01CD010895F894FFCF53
:00000001FF
